S0220000536D61727420436C6F636B20776974682041546D6567613136412E737265631C
S11300000C942A000C9447000C9447000C9447006D
S11300100C9447000C9447000C94B3000C944700D4
S11300200C9447000C9447000C9447000C94470030
S11300300C9447000C9447000C9447000C94470020
S11300400C9447000C9447000C9447000C94470010
S11300500C94470011241FBECFE5D4E0DEBFCDBF12
S113006010E0A0E6B0E0EAE0F2E102C005900D92F3
S1130070A03FB107D9F721E0A0EFB0E001C01D9285
S1130080AA30B207E1F70E94B5040C9403090C945A
S11300900000883149F0883419F08C3069F408C0C4
S11300A088E480B981E0089588E180B981E0089509
S11300B08CE080B981E0089580E00895982F9295AE
S11300C09F70990F292F220F220F920F8F70890F83
S11300D00895CF93C82F84B38D7F84BB85B38D7F60
S11300E085BB8C2F0E9449008823D9F3CF910895B2
S11300F094EA96BF06B607FEFDCF880F83B984E85D
S113010086BF06B607FEFDCF089583B984E886BF8F
S113011006B607FEFDCF089594EA96BF06B607FE1D
S1130120FDCF90E0880F991F816083B984E886BF72
S113013006B607FEFDCF0895813031F484EC86BF06
S113014006B607FEFDCF07C0811105C084E886BF4F
S113015006B607FEFDCF83B1089584E986BF06B6CF
S113016004FCFDCF08951F920F920FB60F92112435
S11301708F939F93AF93BF938091F8009091F90070
S1130180A091FA00B091FB000196A11DB11D8093CE
S1130190F8009093F900A093FA00B093FB00BF918C
S11301A0AF919F918F910F900FBE0F901F90189554
S11301B09EB599609EBD682F70E080E090E00E943B
S11301C0830520E030E04AE754E40E94E0042DEB8C
S11301D037E346E853E30E94E0040E9452057BBDE6
S11301E06ABD89B7806189BF0895F89421E009C088
S11301F06091F8007091F9008091FA009091FB00F1
S113020020E02111F5CF789408950E94780080E0D1
S11302100E9485000E94AD000895CF93C62F0E94CE
S113022078008C2F0E9485000E94AD00CF91089524
S11302301F93CF93DF93182F682F607FC0EFD0E018
S11302408F81682B6C7F6460688389810E940D01B3
S113025025E02A95F1F7000068816B7F6883898126
S11302600E940D018FED9EE20197F1F700C000009E
S113027020E1129FC00111246F81682B6C7F6460A0
S1130280688389810E940D0185E08A95F1F7000059
S113029068816B7F688389810E940D018FED9EE2E6
S11302A00197F1F700C00000DF91CF911F910895ED
S11302B01F93CF93DF93182F682F607FC0EFD0E098
S11302C08F81682B61606D7F6460688389810E947F
S11302D00D0125E02A95F1F7000068816B7F6883A2
S11302E089810E940D018FED9EE20197F1F700C014
S11302F0000020E1129FC00111246F81682B61600E
S11303006D7F6460688389810E940D0185E08A9510
S1130310F1F7000068816B7F688389810E940D0179
S11303208FED9EE20197F1F700C00000DF91CF91BD
S11303301F910895CF93DF93EC0103C021960E948F
S1130340580188818111FACFDF91CF91089582E01D
S11303500E941801089581E00E9418010895609197
S1130360F70061110AC06860E0EFF0E06783808104
S1130370682B608381810E940D010895CF93DF93E0
S1130380C42FE0EFF0E08183615062838FEF840F2C
S113039083838FE59AEE0197F1F700C00000818115
S11303A00E9405018FE090E40197F1F700C000007E
S11303B083E00E9418018FE090E40197F1F700C0F8
S11303C0000083E00E9418018FE090E40197F1F7A8
S11303D000C0000083E00E9418018FE090E40197C0
S11303E0F1F700C0000082E00E941801C13019F446
S11303F08091F40003C08091F4008860C0EFD0E0E5
S11304008C8380620E9418018D81982F94609D8353
S11304108C600E9418018E8184600E9418010E94E1
S1130420AB010E94A7010E94AF01DF91CF91089513
S1130430CF93DF9300D000D0CDB7DEB7198290E41C
S11304409A8394E19B8394E59C839091F2008917AD
S113045008F4982F8091F300681708F4862FE1E0E0
S1130460F0E0EC0FFD1FE80FF11D8081890F80681B
S11304700E9418010F900F900F900F90DF91CF9171
S11304800895EF92FF920F931F93CF93DF93CDB70D
S1130490DEB79E01275F3F4FF901419151919F01C2
S11304A0EDB6FEB66091F20070E06F5F7F4F8DB7DE
S11304B09EB7861B970B0FB6F8949EBF0FBE8DBFD9
S11304C00DB71EB70F5F1F4FC8010E940F06C8016A
S11304D00E949A010FB6F894FEBE0FBEEDBEDF91E6
S11304E0CF911F910F91FF90EF900895EF92FF929B
S11304F00F931F93CF93DF93EC018B017A0188E66E
S11305000E94780080E00E94850088E60E948C00AA
S113051081E00E949C008F770E945E00F701808337
S113052081E00E949C000E945E00F801808380E0CC
S11305300E949C000E945E0088830E94AD00DF91AF
S1130540CF911F910F91FF90EF900895EF92FF923A
S11305500F931F93CF93DF937C018B01EA0188E60D
S11305600E94780084E00E94850088E60E948C0046
S113057081E00E949C000E945E00F701808381E07C
S11305800E949C000E945E00F801808380E00E942B
S11305909C000E945E0088830E94AD00DF91CF9191
S11305A01F910F91FF90EF900895CF93DF93EC018B
S11305B088E60E94780083E00E94850088E60E9415
S11305C08C0080E00E949C000E945E0088830E9450
S11305D0AD00DF91CF910895CF93DF93EC0188E6CE
S11305E00E94780081E10E94850088E60E948C00C8
S11305F080E00E949C008883882314F4819588837A
S11306000E94AD00DF91CF9108951F93CF93DF93A4
S1130610182FEB0180E50E94780080E00E9485009D
S1130620812F0E94850080E50E948C0080E00E945A
S11306309C0088830E94AD00DF91CF911F910895A3
S11306400F931F93CF93DF93CDB7DEB7EF970FB61A
S1130650F894DEBF0FBECDBF4CEF50E06DEF70E0FD
S11306608EEF90E00E94760242E051E061E071E09A
S113067080E091E00E94A6028FEF90E00E94D502F4
S113068083E091E00E94EC028091060190910701C1
S1130690A0910801B0910901409164005091650056
S11306A060916600709167008C019D01041B150B1D
S11306B0260B370BB901A801493E5340610571056A
S11306C008F481C08093640090936500A093660051
S11306D0B093670060E080E00E94180287EA90E02F
S11306E09F938F930E9441028091FE000F900F9080
S11306F08A3040F48EEA90E09F938F930E944102E7
S11307000F900F900CEF10E0F80182811F928F93ED
S113071080EB90E09F938F930E944102F8018181C6
S11307200F900F900F900F908A3040F48EEA90E073
S11307309F938F930E9441020F900F900CEF10E053
S1130740F80181811F928F9380EB90E09F938F93A8
S11307500E944102F80180810F900F900F900F903A
S11307608A3040F48EEA90E09F938F930E94410276
S11307700F900F900CEF10E0F80180811F928F937F
S113078084EB90E09F938F930E94410263E080E0AA
S11307900E94180287EB90E09F938F930E9441027E
S11307A0F8018781282F082E000C330B3F938F9379
S11307B085EC90E09F938F930E9441020FB6F894CA
S11307C0DEBF0FBECDBF8091060190910701A091BD
S11307D00801B0910901409160005091610060915D
S11307E06200709163008C019D01041B150B260BA4
S11307F0370BB901A801413157426105710508F46D
S1130800A9C08093600090936100A0936200B093AC
S1130810630061E080E00E94180289EC90E09F93FD
S11308208F930E944102809100010F900F908A30B3
S113083040F48EEA90E09F938F930E9441020F90C0
S11308400F900CEF10E0F80184811F928F9380EDDC
S113085090E09F938F930E944102F80185810F904D
S11308600F900F900F908A3040F48EEA90E09F939F
S11308708F930E9441020F900F900CEF10E0F8014B
S113088085811F928F9380ED90E09F938F930E94B8
S11308904102F80186810F900F900F900F908A30DB
S11308A040F48EEA90E09F938F930E9441020F9050
S11308B00F900CEF10E0F80186811F928F9384EB68
S11308C090E09F938F930E94410262E080E00E9437
S11308D0180284ED90E09F938F930E9441028FE36E
S11308E0E8E6F0E0DE01119601900D928A95E1F7B9
S11308F0F801838190E09C01220F331F220F331FE4
S1130900220F331F820F931F01E010E00C0F1D1FF5
S1130910800F911F9F938F938AED90E09F938F9305
S11309200E94410264E071E080E00E94050360E0FF
S11309308FE00E941802809104011F928F938DED25
S113094090E09F938F930E9441020FB6F894DEBF0C
S11309500FBECDBFEF960FB6F894DEBF0FBECDBF6E
S1130960DF91CF911F910F91089581E00E94D800EB
S113097088E40E94690044E064E188E30E94BE01C7
S113098082EE90E09F938F930E9441022FEF83EDBC
S113099090E3215080409040E1F700C000000E94A5
S11309A0AB010F900F900E94F500609306017093C5
S11309B0070180930801909309010E942003F3CF5B
S11309C00E94F4040C94D5050E94CE0558F00E94B0
S11309D0C70540F029F45F3F29F00C94BE0551117E
S11309E00C9409060C94C4050E94E60568F3992347
S11309F0B1F3552391F3951B550BBB27AA27621717
S1130A007307840738F09F5F5F4F220F331F441F23
S1130A10AA1FA9F335D00E2E3AF0E0E832D0915057
S1130A205040E695001CCAF72BD0FE2F29D0660F44
S1130A30771F881FBB1F261737074807AB07B0E887
S1130A4009F0BB0B802DBF01FF2793585F4F3AF08D
S1130A509E3F510578F00C94BE050C9409065F3F47
S1130A60E4F3983ED4F3869577956795B795F79513
S1130A709F5FC9F7880F911D9695879597F90895FB
S1130A80E1E0660F771F881FBB1F62177307840797
S1130A90BA0720F0621B730B840BBA0BEE1F88F7A6
S1130AA0E09508950E94EE0588F09F5798F0B92FBD
S1130AB09927B751B0F0E1F0660F771F881F991F8F
S1130AC01AF0BA95C9F714C0B13091F00E94080623
S1130AD0B1E008950C940806672F782F8827B85F33
S1130AE039F0B93FCCF3869577956795B395D9F7E7
S1130AF03EF490958095709561957F4F8F4F9F4FF1
S1130B000895E89409C097FB3EF4909580957095FC
S1130B1061957F4F8F4F9F4F9923A9F0F92F96E945
S1130B20BB279395F695879577956795B795F111BA
S1130B30F8CFFAF4BB0F11F460FF1BC06F5F7F4F57
S1130B408F4F9F4F16C0882311F096E911C0772369
S1130B5021F09EE8872F762F05C0662371F096E872
S1130B60862F70E060E02AF09A95660F771F881F41
S1130B70DAF7880F9695879597F9089597F99F67FF
S1130B8080E870E060E008959FEF80EC0895002411
S1130B900A941616170618060906089500240A94DE
S1130BA012161306140605060895092E0394000C64
S1130BB011F4882352F0BB0F40F4BF2B11F460FFF3
S1130BC004C06F5F7F4F8F4F9F4F089557FD90581C
S1130BD0440F551F59F05F3F71F04795880F97FBFD
S1130BE0991F61F09F3F79F08795089512161306B7
S1130BF01406551FF2CF4695F1DF08C016161706E6
S1130C001806991FF1CF869571056105089408951A
S1130C10E894BB2766277727CB0197F90895AEE0C0
S1130C20B0E0E5E1F6E00C94DA088C01FA0186E024
S1130C308C831A83098377FF02C060E070E8CB01DC
S1130C4001979E838D83A901BF01CE0101960E9465
S1130C503B064D815E8157FD0AC02F8138854217BE
S1130C6053070CF49A01F801E20FF31F10822E9639
S1130C70E4E00C94F608ABE0B0E0E1E4F6E00C94B8
S1130C80CC086C017B018A01FC01178216828381E6
S1130C9081FFCCC1CE0101963C01F6019381F7019D
S1130CA093FD859193FF81917F01882309F4BAC153
S1130CB0853239F493FD859193FF81917F018532CB
S1130CC029F4B60190E00E943208E7CF912C212C40
S1130CD0312CFFE1F315D8F08B3279F038F48032FF
S1130CE079F08332A1F4232D20611DC08D3261F08F
S1130CF0803369F4232D216016C0832D8260382E41
S1130D00E32DE4603E2E2AC0F32DF8601DC037FCAD
S1130D102DC020ED280F2A3040F08E32B9F436FC75
S1130D2081C1232D2064322E19C036FE06C08AE00C
S1130D30989E200D1124922E11C0EAE02E9E200DC3
S1130D401124222EF32DF0623F2E08C08C3621F49C
S1130D50832D8068382E02C0883641F4F70193FD54
S1130D60859193FF81917F018111B3CF982F9F7D4E
S1130D709554933028F40C5F1F4F9FE399830DC063
S1130D80833631F0833771F0833509F059C021C0BF
S1130D90F801808189830E5F1F4F88248394912CEE
S1130DA0530113C02801F2E04F0E511CF801A0803A
S1130DB0B18036FE03C0692D70E002C06FEF7FEF93
S1130DC0C5010E9427084C018201F32DFF773F2EB5
S1130DD016C0280122E0420E511CF801A080B18007
S1130DE036FE03C0692D70E002C06FEF7FEFC501CE
S1130DF00E941C084C01F32DF0683F2E820133FC45
S1130E001BC0822D90E088169906B0F4B60180E2EA
S1130E1090E00E9432082A94F4CFF50137FC8591C2
S1130E2037FE81915F01B60190E00E9432082110E3
S1130E302A9421E0821A91088114910471F7E8C080
S1130E40843611F0893641F5F80137FE07C0608118
S1130E507181828193810C5F1F4F08C06081718111
S1130E60072E000C880B990B0E5F1F4FF32DFF7696
S1130E703F2E97FF09C090958095709561957F4F9F
S1130E808F4F9F4FF0683F2E2AE030E0A3010E946D
S1130E906E08882E861845C0853731F4232D2F7EA1
S1130EA0B22E2AE030E025C0932D997FB92E8F36DB
S1130EB0C1F018F4883579F0B5C0803719F0883757
S1130EC021F0B0C0E92FE061BE2EB4FE0DC0FB2DB1
S1130ED0F460BF2E09C034FE0AC0292F2660B22E4A
S1130EE006C028E030E005C020E130E002C020E187
S1130EF032E0F801B7FE07C060817181828193817D
S1130F000C5F1F4F06C06081718180E090E00E5F2E
S1130F101F4FA3010E946E08882E8618FB2DFF77B1
S1130F203F2E36FE0DC0232D2E7FA22E891458F499
S1130F3034FE0BC032FC09C0832D8E7EA82E05C062
S1130F40B82CA32C03C0B82C01C0B92CA4FE0FC02C
S1130F50FE01E80DF11D8081803321F49A2D997EE4
S1130F60A92E09C0A2FE06C0B394B39404C08A2D6E
S1130F70867809F0B394A3FC11C0A0FE06C0B21495
S1130F8088F4280C922C9B180EC0B21460F4B6019D
S1130F9080E290E00E943208B394F7CFB21418F4C0
S1130FA02B1802C0982C212CA4FE10C0B60180E39B
S1130FB090E00E943208A2FE17C0A1FC03C088E79B
S1130FC090E002C088E590E0B6010CC08A2D8678D6
S1130FD059F0A1FE02C08BE201C080E2A7FC8DE2C1
S1130FE0B60190E00E943208891438F4B60180E317
S1130FF090E00E9432089A94F7CF8A94F301E80DA6
S1131000F11D8081B60190E00E9432088110F5CF75
S1131010222009F442CEB60180E290E00E94320818
S11310202A94F6CFF6018681978102C08FEF9FEF55
S11310302B96E2E10C94E808FC01059061507040A5
S11310400110D8F7809590958E0F9F1F0895FC018D
S11310506150704001900110D8F7809590958E0FE3
S11310609F1F08950F931F93CF93DF93FB01238159
S113107021FD03C08FEF9FEF2CC022FF16C04681D5
S11310805781248135814217530744F4A081B181EB
S11310909D012F5F3F4F318320838C9326813781BD
S11310A02F5F3F4F3783268314C08B01EC01FB0174
S11310B00084F185E02D0995892BE1F6D801169677
S11310C08D919C911797019617969C938E931697E2
S11310D0CE01DF91CF911F910F910895FA01AA27B4
S11310E0283051F1203181F1E8946F936E7F6E5F67
S11310F07F4F8F4F9F4FAF4FB1E03ED0B4E03CD015
S1131100670F781F891F9A1FA11D680F791F8A1FF7
S1131110911DA11D6A0F711D811D911DA11D20D05E
S113112009F468943F912AE0269F11243019305D18
S11311303193DEF6CF010895462F4770405D419309
S1131140B3E00FD0C9F7F6CF462F4F70405D4A3356
S113115018F0495D31FD4052419302D0A9F7EACF1E
S1131160B4E0A6959795879577956795BA95C9F74D
S113117000976105710508959B01AC010A2E069440
S11311805795479537952795BA95C9F7620F731FF9
S1131190841F951FA01D08952F923F924F925F9236
S11311A06F927F928F929F92AF92BF92CF92DF9273
S11311B0EF92FF920F931F93CF93DF93CDB7DEB7D8
S11311C0CA1BDB0B0FB6F894DEBF0FBECDBF09946C
S11311D02A88398848885F846E847D848C849B84C3
S11311E0AA84B984C884DF80EE80FD800C811B81D1
S11311F0AA81B981CE0FD11D0FB6F894DEBF0FBE00
S10D1200CDBFED010895F894FFCF6F
S113120A10270000E80300004D6F6E646179000046
S113121A005475657364617900005765646E65737B
S113122A6461795468757273646179004672696499
S113123A61790000005361747572646179005375B1
S113124A6E64617900000054696D653A20003000CB
S113125A25643A0025640054656D7065726174757D
S113126A72653A200025644300446174653A20009B
S113127A25642F00446F573A2000257300307825DF
S113128A58004C4344203230783420493243000019
S9030000FC
