S0220000536D61727420436C6F636B20776974682041546D6567613136412E737265631C
S11300000C942A000C9447000C9447000C9447006D
S11300100C9447000C9447000C9488000C944700FF
S11300200C9447000C9447000C9447000C94470030
S11300300C9447000C9447000C9447000C94470020
S11300400C9447000C9447000C9447000C94470010
S11300500C94470011241FBECFE5D4E0DEBFCDBF12
S113006010E0A0E6B0E0EEE8FBE002C005900D92DF
S1130070A43EB107D9F721E0A4EEB0E001C01D927F
S1130080A331B207E1F70E9427020C94C5050C9432
S11300900000883149F0883419F08C3069F408C0C4
S11300A088E480B981E0089588E180B981E0089509
S11300B08CE080B981E0089580E00895CF93C82F43
S11300C084B38D7F84BB85B38D7F85BB8C2F0E94C9
S11300D049008823D9F381E0CF91089594EA96BF2B
S11300E006B607FEFDCF880F83B984E886BF06B63F
S11300F007FEFDCF089583B984E886BF06B607FEE0
S1130100FDCF089584E986BF06B604FCFDCF0895AB
S11301101F920F920FB60F9211248F939F93AF9358
S1130120BF938091000190910101A0910201B091CF
S113013003010196A11DB11D80930001909301015B
S1130140A0930201B0930301BF91AF919F918F914E
S11301500F900FBE0F901F9018959EB599609EBD8D
S1130160A82FB0E020E034E244EF50E00E94B70250
S113017028EE33E040E050E00E9495023BBD2ABDEA
S113018089B7806189BF0895F89421E009C060911E
S1130190000170910101809102019091030120E01E
S11301A02111F5CF789408950E946E0080E00E949A
S11301B07B000E9482000895CF93C62F0E946E0098
S11301C08C2F0E947B000E948200CF9108951F9380
S11301D0CF93DF93182F682F607FC4EED0E0646064
S11301E0688389810E94DC0085E08A95F1F700002C
S11301F068816B7F688389810E94DC008FED9EE2B9
S11302000197F1F700C00000612F6295607F646080
S1130210688389810E94DC0095E09A95F1F70000DB
S113022068816B7F688389810E94DC008FED9EE288
S11302300197F1F700C00000DF91CF911F9108955D
S11302401F93CF93DF93182F682F607FC4EED0E005
S11302506560688389810E94DC0085E08A95F1F7F6
S1130260000068816B7F688389810E94DC008FEDC8
S11302709EE20197F1F700C0000090E1199FB001E0
S1130280112461606D7F6460688389810E94DC0051
S113029085E08A95F1F7000068816B7F6883898126
S11302A00E94DC008FED9EE20197F1F700C0000090
S11302B0DF91CF911F910895CF93DF93EC0103C099
S11302C021960E94200188818111FACFDF91CF917C
S11302D0089582E00E94E700089581E00E94E7000B
S11302E00895CF93DF93C42FE4EEF0E0818361504F
S11302F062838FEF840F83838FE59AEE0197F1F782
S113030000C0000081810E94D4008FE090E4019736
S1130310F1F700C0000083E00E94E7008FE090E462
S11303200197F1F700C0000083E00E94E7008FE02E
S113033090E40197F1F700C0000083E00E94E70019
S11303408FE090E40197F1F700C0000082E00E9482
S1130350E700C13019F48091E80003C08091E800FF
S11303608860C4EED0E08C8380620E94E7008D81B7
S1130370982F94609D838C600E94E7008E81846036
S11303800E94E7000E946D010E946901DF91CF91F4
S11303900895CF93DF9300D000D0CDB7DEB7198294
S11303A090E49A8394E19B8394E59C839091E60086
S11303B0891708F4982F8091E700681708F4862FAE
S11303C0E1E0F0E0EC0FFD1FE80FF11D8081890FE3
S11303D080680E94E7000F900F900F900F90DF91BC
S11303E0CF910895EF92FF920F931F93CF93DF93D2
S11303F0CDB7DEB79E01275F3F4FF901419151917F
S11304009F01EDB6FEB66091E60070E06F5F7F4F2E
S11304108DB79EB7861B970B0FB6F8949EBF0FBE81
S11304208DBF0DB71EB70F5F1F4FC8010E94D102C9
S1130430C8010E945C010FB6F894FEBE0FBEEDBE6B
S1130440DF91CF911F910F91FF90EF90089581E07C
S11304500E94AD0088E40E945E0044E064E188E309
S11304600E94710184E690E09F938F930E94F201B1
S11304702FEF43ED80E3215040408040E1F700C07E
S113048000000E946D010F900F900E94C4006093C1
S11304900F01709310018093110190931201009148
S11304A060001091610020916200309163006B0143
S11304B07C01C01AD10AE20AF30A49EEC41643E0E9
S11304C0D406E104F10408F36093600070936100C2
S11304D0809362009093630060E080E00E94C90111
S11304E081E790E09F938F930E94F20161E080E0A6
S11304F00E94C901809163008F93809162008F9361
S1130500809161008F93809160008F938CE790E0DD
S11305109F938F930E94F2018DB79EB708960FB6F2
S1130520F8949EBF0FBE8DBFB0CFA1E21A2EAA1BB6
S1130530BB1BFD010DC0AA1FBB1FEE1FFF1FA2178F
S1130540B307E407F50720F0A21BB30BE40BF50B8C
S1130550661F771F881F991F1A9469F76095709515
S1130560809590959B01AC01BD01CF0108950E9437
S1130570C202A59F900DB49F900DA49F800D911D64
S113058011240895A29FB001B39FC001A39F700DD1
S1130590811D1124911DB29F700D811D1124911D87
S11305A00895AEE0B0E0E7EDF2E00C949C058C0118
S11305B0FA0186E08C831A83098377FF02C060E026
S11305C070E8CB0101979E838D83A901BF01CE0101
S11305D001960E94FD024D815E8157FD0AC02F8164
S11305E03885421753070CF49A01F801E20FF31F00
S11305F010822E96E4E00C94B805ABE0B0E0E3E0A2
S1130600F3E00C948E056C017B018A01FC011782D6
S11306101682838181FFCCC1CE0101963C01F60193
S11306209381F70193FD859193FF81917F01882345
S113063009F4BAC1853239F493FD859193FF819110
S11306407F01853229F4B60190E00E94F404E7CFDB
S1130650912C212C312CFFE1F315D8F08B3279F059
S113066038F4803279F08332A1F4232D20611DC047
S11306708D3261F0803369F4232D216016C0832DFF
S11306808260382EE32DE4603E2E2AC0F32DF860FC
S11306901DC037FC2DC020ED280F2A3040F08E32CB
S11306A0B9F436FC81C1232D2064322E19C036FEE4
S11306B006C08AE0989E200D1124922E11C0EAE013
S11306C02E9E200D1124222EF32DF0623F2E08C001
S11306D08C3621F4832D8068382E02C0883641F48C
S11306E0F70193FD859193FF81917F018111B3CF30
S11306F0982F9F7D9554933028F40C5F1F4F9FE3F0
S113070099830DC0833631F0833771F0833509F056
S113071059C021C0F801808189830E5F1F4F88244E
S11307208394912C530113C02801F2E04F0E511C05
S1130730F801A080B18036FE03C0692D70E002C0CC
S11307406FEF7FEFC5010E94E9044C018201F32D94
S1130750FF773F2E16C0280122E0420E511CF801FB
S1130760A080B18036FE03C0692D70E002C06FEF37
S11307707FEFC5010E94DE044C01F32DF0683F2E8B
S1130780820133FC1BC0822D90E088169906B0F4D8
S1130790B60180E290E00E94F4042A94F4CFF501BB
S11307A037FC859137FE81915F01B60190E00E948C
S11307B0F40421102A9421E0821A910881149104EE
S11307C071F7E8C0843611F0893641F5F80137FE37
S11307D007C060817181828193810C5F1F4F08C0C3
S11307E060817181072E000C880B990B0E5F1F4FDF
S11307F0F32DFF763F2E97FF09C090958095709555
S113080061957F4F8F4F9F4FF0683F2E2AE030E075
S1130810A3010E943005882E861845C0853731F41F
S1130820232D2F7EB22E2AE030E025C0932D997F10
S1130830B92E8F36C1F018F4883579F0B5C08037F9
S113084019F0883721F0B0C0E92FE061BE2EB4FE64
S11308500DC0FB2DF460BF2E09C034FE0AC0292F41
S11308602660B22E06C028E030E005C020E130E06A
S113087002C020E132E0F801B7FE07C06081718157
S1130880828193810C5F1F4F06C06081718180E07B
S113089090E00E5F1F4FA3010E943005882E86183A
S11308A0FB2DFF773F2E36FE0DC0232D2E7FA22E6B
S11308B0891458F434FE0BC032FC09C0832D8E7E9B
S11308C0A82E05C0B82CA32C03C0B82C01C0B92C89
S11308D0A4FE0FC0FE01E80DF11D8081803321F4D8
S11308E09A2D997EA92E09C0A2FE06C0B394B39492
S11308F004C08A2D867809F0B394A3FC11C0A0FE2D
S113090006C0B21488F4280C922C9B180EC0B214A2
S113091060F4B60180E290E00E94F404B394F7CF4F
S1130920B21418F42B1802C0982C212CA4FE10C069
S1130930B60180E390E00E94F404A2FE17C0A1FC7B
S113094003C088E790E002C088E590E0B6010CC0DF
S11309508A2D867859F0A1FE02C08BE201C080E2A4
S1130960A7FC8DE2B60190E00E94F404891438F4E7
S1130970B60180E390E00E94F4049A94F7CF8A943D
S1130980F301E80DF11D8081B60190E00E94F404AA
S11309908110F5CF222009F442CEB60180E290E026
S11309A00E94F4042A94F6CFF6018681978102C04E
S11309B08FEF9FEF2B96E2E10C94AA05FC010590C2
S11309C0615070400110D8F7809590958E0F9F1F4D
S11309D00895FC016150704001900110D8F7809592
S11309E090958E0F9F1F08950F931F93CF93DF93BE
S11309F0FB01238121FD03C08FEF9FEF2CC022FF59
S1130A0016C046815781248135814217530744F427
S1130A10A081B1819D012F5F3F4F318320838C934F
S1130A20268137812F5F3F4F3783268314C08B0184
S1130A30EC01FB010084F185E02D0995892BE1F699
S1130A40D80116968D919C911797019617969C93B1
S1130A508E931697CE01DF91CF911F910F91089538
S1130A60FA01AA27283051F1203181F1E8946F93DB
S1130A706E7F6E5F7F4F8F4F9F4FAF4FB1E03ED081
S1130A80B4E03CD0670F781F891F9A1FA11D680F1F
S1130A90791F8A1F911DA11D6A0F711D811D911D52
S1130AA0A11D20D009F468943F912AE0269F1124C7
S1130AB03019305D3193DEF6CF010895462F47702B
S1130AC0405D4193B3E00FD0C9F7F6CF462F4F7086
S1130AD0405D4A3318F0495D31FD4052419302D0E4
S1130AE0A9F7EACFB4E0A69597958795779567958A
S1130AF0BA95C9F700976105710508959B01AC018A
S1130B000A2E06945795479537952795BA95C9F7B0
S1130B10620F731F841F951FA01D08952F923F928B
S1130B204F925F926F927F928F929F92AF92BF92F9
S1130B30CF92DF92EF92FF920F931F93CF93DF93A5
S1130B40CDB7DEB7CA1BDB0B0FB6F894DEBF0FBE02
S1130B50CDBF09942A88398848885F846E847D844F
S1130B608C849B84AA84B984C884DF80EE80FD8051
S1130B700C811B81AA81B981CE0FD11D0FB6F894C7
S1110B80DEBF0FBECDBFED010895F894FFCF88
S1130B8EE80300004C434420323078342049324389
S1130B9E0048656C6C6F2C204D462100256C750049
S1130BAE54696D653A2000300025643A0054656D31
S1130BBE70657261747572653A2000256443004451
S1130BCE6174653A200025642F00446F573A200063
S1130BDE2573003078255820256400256300416371
S1130BEE63657373204772616E746564210041639B
S1130BFE636573732044656E696564210031333017
S1070C0E3830320044
S9030000FC
