S0220000536D61727420436C6F636B20776974682041546D6567613136412E737265631C
S11300000C942A000C9447000C9447000C9447006D
S11300100C9447000C9447000C94C4000C944700C3
S11300200C9447000C9447000C9447000C94470030
S11300300C9447000C9447000C9447000C94470020
S11300400C9447000C9447000C9447000C94470010
S11300500C94470011241FBECFE5D4E0DEBFCDBF12
S113006011E0A0E6B0E0EEE7F5E102C005900D92E4
S1130070A832B107D9F721E0A8E2B1E001C01D928E
S1130080A835B207E1F70E9466060C94BD0A0C94E9
S11300900000883149F0883419F08C3069F408C0C4
S11300A088E480B981E0089588E180B981E0089509
S11300B08CE080B981E0089580E00895982F9295AE
S11300C09F70990F292F220F220F920F8F70890F83
S11300D00895E0E3F1E084819581891721F080930C
S11300E0350181E0089580E00895CF93C82F84B34B
S11300F08D7F84BB85B38D7F85BB8C2F0E94490087
S11301008823D9F381E0CF91089594EA96BF06B687
S113011007FEFDCF880F83B984E886BF06B607FEC5
S1130120FDCF089583B984E886BF06B607FEFDCFE8
S1130130089560932F0194EA96BF06B607FEFDCF9B
S113014090E0880F991F816083B984E886BF06B662
S113015007FEFDCF089580912F01815080932F01D8
S113016018161CF484EC86BF04C0811102C084E814
S113017086BF06B607FEFDCF83B1089584E986BF26
S113018006B604FCFDCF08951F920F920FB60F928E
S113019011248F939F93AF93BF93809145019091C6
S11301A04601A0914701B09148010196A11DB11DDE
S11301B08093450190934601A0934701B093480171
S11301C0BF91AF919F918F910F900FBE0F901F9091
S11301D018959EB599609EBD682F70E080E090E010
S11301E00E943D0720E030E04AE754E40E949A066A
S11301F02DEB37E346E853E30E949A060E940C076E
S11302007BBD6ABD89B7806189BF0895F89421E0F8
S113021009C0609145017091460180914701909118
S1130220480120E02111F5CF789408950E948500BB
S113023080E00E9492000E94BE000895CF93C62FD2
S11302400E9485008C2F0E9492000E94BE00CF91D4
S113025008951F93CF93DF93182F682F607FC8E210
S1130260D1E06460688389810E941E0185E08A95DB
S1130270F1F7000068816B7F688389810E941E0109
S11302808FED9EE20197F1F700C00000612F6295A7
S1130290607F6460688389810E941E0195E09A955D
S11302A0F1F7000068816B7F688389810E941E01D9
S11302B08FED9EE20197F1F700C00000DF91CF912E
S11302C01F9108951F93CF93DF93182F682F607F9A
S11302D0C8E2D1E06560688389810E941E0185E0DF
S11302E08A95F1F7000068816B7F688389810E9499
S11302F01E018FED9EE20197F1F700C0000090E12E
S1130300199FB001112461606D7F646068838981E5
S11303100E941E0185E08A95F1F7000068816B7FD9
S1130320688389810E941E018FED9EE20197F1F797
S113033000C00000DF91CF911F910895CF93DF9308
S1130340EC0103C021960E94620188818111FACFD9
S1130350DF91CF910895CF93C82F0E94850061E06B
S11303608C2F0E9499000E94AB00CF910895CF93E7
S1130370DF93C0E3D1E0682F88810E941E01888149
S11303800E94AB01DF91CF910895CF9380EF0E943B
S1130390B701C82F8FE00E94B70190E011C0492F28
S11303A050E04C5F5F4F2C2F30E002C0359527950D
S11303B04A95E2F720FD03C09093330103C09F5F89
S11303C0943068F390E013C0282F30E0092E02C067
S11303D0359527950A94E2F720FD08C0E0E3F1E0A3
S11303E0990F990F8381980F938303C09F5F943073
S11303F058F3CF91089582E00E942901089581E085
S11304000E9429010895CF93DF93C42FE8E2F1E01D
S11304108183615062838FEF840F83838FE59AEE2B
S11304200197F1F700C0000081810E9416018FE05E
S113043090E40197F1F700C0000083E00E942901D5
S11304408FE090E40197F1F700C0000083E00E9480
S113045029018FE090E40197F1F700C0000083E0E8
S11304600E9429018FE090E40197F1F700C0000099
S113047082E00E942901C13019F480912C0103C04B
S113048080912C018860C8E2D1E08C8380620E9454
S113049029018D81982F94609D838C600E9429018D
S11304A08E8184600E9429010E94FF010E94FB0149
S11304B0DF91CF910895CF93DF9300D000D0CDB7D3
S11304C0DEB7198290E49A8394E19B8394E59C833C
S11304D090912A01891708F4982F80912B016817AD
S11304E008F4862FE1E0F0E0EC0FFD1FE80FF11DAA
S11304F08081890F80680E9429010F900F900F90CE
S11305000F90DF91CF910895EF92FF920F931F9375
S1130510CF93DF93CDB7DEB79E01275F3F4FF9013D
S1130520419151919F01EDB6FEB660912A0170E0B0
S11305306F5F7F4F8DB79EB7861B970B0FB6F894EE
S11305409EBF0FBE8DBF0DB71EB70F5F1F4FC801F3
S11305500E94C907C8010E949E010FB6F894FEBE0E
S11305600FBEEDBEDF91CF911F910F91FF90EF90E1
S11305700895EF92FF920F931F93CF93DF93EC01B3
S11305808B017A0188E60E94850080E00E94920037
S113059063E088E60E9499000E94AB008F770E9476
S11305A05E00F70180830E94AB000E945E00F801A8
S11305B080830E94AB000E945E0088830E94BE007C
S11305C0DF91CF911F910F91FF90EF900895EF92DB
S11305D0FF920F931F93CF93DF937C018B01EA016A
S11305E088E60E94850084E00E94920063E088E629
S11305F00E9499000E94AB000E945E00F701808374
S11306000E94AB000E945E00F80180830E94AB0050
S11306100E945E0088830E94BE00DF91CF911F91EB
S11306200F91FF90EF900895CF93DF93EC0188E64C
S11306300E94850083E00E94920061E088E60E94A7
S113064099000E94AB000E945E0088830E94BE0055
S1130650DF91CF910895CF93DF93EC0188E60E9458
S1130660850081E10E94920061E088E60E94990081
S11306700E94AB008883882314F4819588830E94A8
S1130680BE00DF91CF910895CF93C82F80E50E94DB
S1130690850080E00E9492008C2F0E94920061E00D
S11306A080E50E9499000E94AB00CF910895CF93FA
S11306B0DF93D82FC62F0E9444038C17B1F080E536
S11306C00E94850080E00E9492008D2F0E9492007B
S11306D08C2F0E9492000E94BE008FE19EE401973D
S11306E0F1F700C0000081E001C080E0DF91CF910C
S11306F00895E82FF92F02C06083319620812111DB
S1130700FBCF0895DC01FB0104C041505109DB011A
S1130710F901BD016F5F7F4F9C919F012F5F3F4F98
S11307208081981791F3452B11F480E0089581E0BE
S11307300895FC0180E002C08F5FF9019F012F5FE3
S11307403F4F90819111F8CF0895EF92FF920F934C
S11307501F93CF93DF937C018B01EA010E949903DD
S1130760F701E80FF11D07C0D8012C912083EC019B
S113077031960F5F1F4FCE010197CD2BA9F7108241
S1130780C701DF91CF911F910F91FF90EF900895D2
S1130790E0E3F1E08083618342830E9416010895BF
S11307A080EF0E94B7018F3F31F091E0803F09F460
S11307B090E0892F089580E008950F931F930E947D
S11307C0C5010E94D003882359F0A0E3B1E0139639
S11307D0EC911397F0E0E859FF4F808114968C93C5
S11307E00E940601009136011091370120913801D1
S11307F030913901DC01CB01801B910BA20BB30BAF
S113080084369105A105B10588F00E940601609324
S113081036017093370180933801909339010E9417
S11308206900882329F08091340103C080E001C06D
S113083080E01F910F9108950F931F93CF93DF933F
S1130840CDB7DEB7EF970FB6F894DEBF0FBECDBFBE
S113085049E451E06AE471E08BE491E00E94B9025A
S11308604FE451E06EE471E08DE491E00E94E70210
S11308708CE491E00E94140380E591E00E942B0334
S11308808091540190915501A0915601B091570166
S1130890409164005091650060916600709167001A
S11308A08C019D01041B150B260B370BB901A80104
S11308B0493E53406105710508F481C0809364008A
S11308C090936500A0936600B093670060E080E0B9
S11308D00E945B0288EB90E09F938F930E948402B6
S11308E080914B010F900F908A3040F48FEB90E091
S11308F09F938F930E9484020F900F9009E411E05C
S1130900F80182811F928F9381EC90E09F938F93E3
S11309100E948402F80181810F900F900F900F9034
S11309208A3040F48FEB90E09F938F930E9484026F
S11309300F900F9009E411E0F80181811F928F93C9
S113094081EC90E09F938F930E948402F801808150
S11309500F900F900F900F908A3040F48FEB90E03F
S11309609F938F930E9484020F900F9009E411E0EB
S1130970F80180811F928F9380EF90E09F938F9373
S11309800E94840263E080E00E945B0285EC90E0B8
S11309909F938F930E948402F8018781282F082E49
S11309A0000C330B3F938F9383ED90E09F938F93D1
S11309B00E9484020FB6F894DEBF0FBECDBF8091B3
S11309C0540190915501A0915601B0915701409165
S11309D060005091610060916200709163008C012D
S11309E09D01041B150B260B370BB901A8014131DE
S11309F057426105710508F4B1C08093600090937B
S1130A006100A0936200B093630061E080E00E9403
S1130A105B0287ED90E09F938F930E948402809104
S1130A204D010F900F908A3040F48FEB90E09F932C
S1130A308F930E9484020F900F9009E411E0F80153
S1130A4084811F928F938EED90E09F938F930E94E9
S1130A508402F80185810F900F900F900F908A30D7
S1130A6040F48FEB90E09F938F930E9484020F9049
S1130A700F9009E411E0F80185811F928F938EEDA8
S1130A8090E09F938F930E948402F80186810F90D7
S1130A900F900F900F908A3040F48FEB90E09F936B
S1130AA08F930E9484020F900F9009E411E0F801E3
S1130AB086811F928F9380EF90E09F938F930E9483
S1130AC0840262E080E00E945B0282EE90E09F93E9
S1130AD08F930E9484028FE3E9E7F0E0DE01119630
S1130AE001900D928A95E1F7F801838190E00197D6
S1130AF09C01220F331F220F331F220F331F820F3B
S1130B00931F01E010E00C0F1D1F800F911F9F9396
S1130B108F9388EE90E09F938F930E94840269E004
S1130B2080E00E945703182F80E00E9444038093C2
S1130B30520160E08FE00E945B021F921F9380913C
S1130B4052011F928F938BEE90E09F938F930E949C
S1130B5084020FB6F894DEBF0FBECDBFEF960FB67A
S1130B60F894DEBF0FBECDBFDF91CF911F910F91DF
S1130B7008950F931F93CF93DF93CDB7DEB72797D5
S1130B800FB6F894DEBF0FBECDBF87E0E4E1F1E01D
S1130B90DE01119601900D928A95E1F70E94DD0322
S1130BA080935101882301F180913A01811102C09F
S1130BB00E94FF0141E050E061E571E08BE391E0C8
S1130BC00E94A50360E080913A010E945B0283EFDA
S1130BD090E09F938F930E94840280913A018F5FEB
S1130BE080933A010F900F9080913A01863009F07A
S1130BF060C060E080E00E945B0247E050E0BE011C
S1130C006F5F7F4F8BE391E00E948203811109C0E3
S1130C1085EF90E09F938F930E9484020F900F9032
S1130C2008C085E091E09F938F930E9484020F9007
S1130C300F9060E08BE391E00E94790310923A01F7
S1130C4088EE93E0A0E0B0E08093640090936500A8
S1130C50A0936600B093670080E197E2A0E0B0E063
S1130C608093600090936100A0936200B09363004E
S1130C700E940601609354017093550180935601BC
S1130C80909357010E94060100915401109155015F
S1130C902091560130915701DC01CB01801B910B4F
S1130CA0A20BB30B813D9740A105B10558F30E94F7
S1130CB0FF0180913A0127960FB6F894DEBF0FBE6C
S1130CC0CDBFDF91CF911F910F91089581E00E94D4
S1130CD0E90088E40E94750044E064E188E30E942E
S1130CE003028BE191E09F938F930E9484022FEF84
S1130CF083ED90E3215080409040E1F700C0000074
S1130D000E94FF0144E064E089E30E94C8030F905D
S1130D100F900E94060160935401709355018093D3
S1130D205601909357010E941C040E94B905811139
S1130D30FCCFEFCF0E94AE060C948F070E94880769
S1130D4058F00E94810740F029F45F3F29F00C9489
S1130D50780751110C94C3070C947E070E94A007D6
S1130D6068F39923B1F3552391F3951B550BBB27D6
S1130D70AA2762177307840738F09F5F5F4F220F1B
S1130D80331F441FAA1FA9F335D00E2E3AF0E0E812
S1130D9032D091505040E695001CCAF72BD0FE2F5C
S1130DA029D0660F771F881FBB1F261737074807F0
S1130DB0AB07B0E809F0BB0B802DBF01FF279358A8
S1130DC05F4F3AF09E3F510578F00C9478070C94ED
S1130DD0C3075F3FE4F3983ED4F386957795679510
S1130DE0B795F7959F5FC9F7880F911D96958795DD
S1130DF097F90895E1E0660F771F881FBB1F6217FC
S1130E0073078407BA0720F0621B730B840BBA0BB9
S1130E10EE1F88F7E09508950E94A80788F09F5771
S1130E2098F0B92F9927B751B0F0E1F0660F771F0A
S1130E30881F991F1AF0BA95C9F714C0B13091F000
S1130E400E94C207B1E008950C94C207672F782F5F
S1130E508827B85F39F0B93FCCF3869577956795C5
S1130E60B395D9F73EF490958095709561957F4F31
S1130E708F4F9F4F0895E89409C097FB3EF49095D7
S1130E808095709561957F4F8F4F9F4F9923A9F05F
S1130E90F92F96E9BB279395F695879577956795EE
S1130EA0B795F111F8CFFAF4BB0F11F460FF1BC032
S1130EB06F5F7F4F8F4F9F4F16C0882311F096E9C5
S1130EC011C0772321F09EE8872F762F05C0662373
S1130ED071F096E8862F70E060E02AF09A95660F2C
S1130EE0771F881FDAF7880F9695879597F90895E5
S1130EF097F99F6780E870E060E008959FEF80ECC9
S1130F00089500240A94161617061806090608956B
S1130F1000240A9412161306140605060895092ED1
S1130F200394000C11F4882352F0BB0F40F4BF2B40
S1130F3011F460FF04C06F5F7F4F8F4F9F4F089580
S1130F4057FD9058440F551F59F05F3F71F0479576
S1130F50880F97FB991F61F09F3F79F0879508955B
S1130F60121613061406551FF2CF4695F1DF08C07A
S1130F70161617061806991FF1CF86957105610597
S1130F8008940895E894BB2766277727CB0197F93F
S1130F900895AEE0B0E0EFECF7E00C94940A8C0115
S1130FA0FA0186E08C831A83098377FF02C060E02C
S1130FB070E8CB0101979E838D83A901BF01CE0107
S1130FC001960E94F5074D815E8157FD0AC02F816D
S1130FD03885421753070CF49A01F801E20FF31F06
S1130FE010822E96E4E00C94B00AABE0B0E0EBEF94
S1130FF0F7E00C94860A6C017B018A01FC011782DC
S11310001682838181FFCCC1CE0101963C01F60199
S11310109381F70193FD859193FF81917F0188234B
S113102009F4BAC1853239F493FD859193FF819116
S11310307F01853229F4B60190E00E94EC09E7CFE4
S1131040912C212C312CFFE1F315D8F08B3279F05F
S113105038F4803279F08332A1F4232D20611DC04D
S11310608D3261F0803369F4232D216016C0832D05
S11310708260382EE32DE4603E2E2AC0F32DF86002
S11310801DC037FC2DC020ED280F2A3040F08E32D1
S1131090B9F436FC81C1232D2064322E19C036FEEA
S11310A006C08AE0989E200D1124922E11C0EAE019
S11310B02E9E200D1124222EF32DF0623F2E08C007
S11310C08C3621F4832D8068382E02C0883641F492
S11310D0F70193FD859193FF81917F018111B3CF36
S11310E0982F9F7D9554933028F40C5F1F4F9FE3F6
S11310F099830DC0833631F0833771F0833509F05D
S113110059C021C0F801808189830E5F1F4F882454
S11311108394912C530113C02801F2E04F0E511C0B
S1131120F801A080B18036FE03C0692D70E002C0D2
S11311306FEF7FEFC5010E94E1094C018201F32D9D
S1131140FF773F2E16C0280122E0420E511CF80101
S1131150A080B18036FE03C0692D70E002C06FEF3D
S11311607FEFC5010E94D6094C01F32DF0683F2E94
S1131170820133FC1BC0822D90E088169906B0F4DE
S1131180B60180E290E00E94EC092A94F4CFF501C4
S113119037FC859137FE81915F01B60190E00E9492
S11311A0EC0921102A9421E0821A910881149104F7
S11311B071F7E8C0843611F0893641F5F80137FE3D
S11311C007C060817181828193810C5F1F4F08C0C9
S11311D060817181072E000C880B990B0E5F1F4FE5
S11311E0F32DFF763F2E97FF09C09095809570955B
S11311F061957F4F8F4F9F4FF0683F2E2AE030E07C
S1131200A3010E94280A882E861845C0853731F428
S1131210232D2F7EB22E2AE030E025C0932D997F16
S1131220B92E8F36C1F018F4883579F0B5C08037FF
S113123019F0883721F0B0C0E92FE061BE2EB4FE6A
S11312400DC0FB2DF460BF2E09C034FE0AC0292F47
S11312502660B22E06C028E030E005C020E130E070
S113126002C020E132E0F801B7FE07C0608171815D
S1131270828193810C5F1F4F06C06081718180E081
S113128090E00E5F1F4FA3010E94280A882E861843
S1131290FB2DFF773F2E36FE0DC0232D2E7FA22E71
S11312A0891458F434FE0BC032FC09C0832D8E7EA1
S11312B0A82E05C0B82CA32C03C0B82C01C0B92C8F
S11312C0A4FE0FC0FE01E80DF11D8081803321F4DE
S11312D09A2D997EA92E09C0A2FE06C0B394B39498
S11312E004C08A2D867809F0B394A3FC11C0A0FE33
S11312F006C0B21488F4280C922C9B180EC0B214A9
S113130060F4B60180E290E00E94EC09B394F7CF58
S1131310B21418F42B1802C0982C212CA4FE10C06F
S1131320B60180E390E00E94EC09A2FE17C0A1FC84
S113133003C088E790E002C088E590E0B6010CC0E5
S11313408A2D867859F0A1FE02C08BE201C080E2AA
S1131350A7FC8DE2B60190E00E94EC09891438F4F0
S1131360B60180E390E00E94EC099A94F7CF8A9446
S1131370F301E80DF11D8081B60190E00E94EC09B3
S11313808110F5CF222009F442CEB60180E290E02C
S11313900E94EC092A94F6CFF6018681978102C057
S11313A08FEF9FEF2B96E2E10C94A20AFC010590CB
S11313B0615070400110D8F7809590958E0F9F1F53
S11313C00895FC016150704001900110D8F7809598
S11313D090958E0F9F1F08950F931F93CF93DF93C4
S11313E0FB01238121FD03C08FEF9FEF2CC022FF5F
S11313F016C046815781248135814217530744F42E
S1131400A081B1819D012F5F3F4F318320838C9355
S1131410268137812F5F3F4F3783268314C08B018A
S1131420EC01FB010084F185E02D0995892BE1F69F
S1131430D80116968D919C911797019617969C93B7
S11314408E931697CE01DF91CF911F910F9108953E
S1131450FA01AA27283051F1203181F1E8946F93E1
S11314606E7F6E5F7F4F8F4F9F4FAF4FB1E03ED087
S1131470B4E03CD0670F781F891F9A1FA11D680F25
S1131480791F8A1F911DA11D6A0F711D811D911D58
S1131490A11D20D009F468943F912AE0269F1124CD
S11314A03019305D3193DEF6CF010895462F477031
S11314B0405D4193B3E00FD0C9F7F6CF462F4F708C
S11314C0405D4A3318F0495D31FD4052419302D0EA
S11314D0A9F7EACFB4E0A695979587957795679590
S11314E0BA95C9F700976105710508959B01AC0190
S11314F00A2E06945795479537952795BA95C9F7B7
S1131500620F731F841F951FA01D08952F923F9291
S11315104F925F926F927F928F929F92AF92BF92FF
S1131520CF92DF92EF92FF920F931F93CF93DF93AB
S1131530CDB7DEB7CA1BDB0B0FB6F894DEBF0FBE08
S1131540CDBF09942A88398848885F846E847D8455
S11315508C849B84AA84B984C884DF80EE80FD8057
S11315600C811B81AA81B981CE0FD11D0FB6F894CD
S1111570DEBF0FBECDBFED010895F894FFCF8E
S113157E10270000E803000031323341343536427F
S113158E373839432A302344004D6F6E6461790035
S113159E00005475657364617900005765646E6567
S11315AE7364617954687572736461790046726903
S11315BE646179000000536174757264617900533B
S11315CE756E64617900000054696D653A200030CF
S11315DE0025643A0054656D7065726174757265A8
S11315EE3A200025644300446174653A2000256462
S11315FE2F00446F573A2000257300307825582069
S113160E2564002A00416363657373204772616E1B
S113161E74656421004163636573732044656E6968
S113162E65642100313330383032004C434420326B
S10B163E3078342049324300E6
S9030000FC
