S0220000536D61727420436C6F636B20776974682041546D6567613136412E737265631C
S11300000C942A000C9447000C9447000C9447006D
S11300100C9447000C9447000C94C4000C944700C3
S11300200C9447000C9447000C9447000C941C0457
S11300300C9450040C9447000C9447000C94470013
S11300400C9447000C9447000C9447000C94470010
S11300500C94470011241FBECFE5D4E0DEBFCDBF12
S113006011E0A0E6B0E0E0E3F7E102C005900D92F4
S1130070A433B107D9F722E0A4E3B1E001C01D9293
S1130080A936B207E1F70E9415070C94960B0C945D
S11300900000883149F0883419F08C3069F408C0C4
S11300A088E480B981E0089588E180B981E0089509
S11300B08CE080B981E0089580E00895982F9295AE
S11300C09F70990F292F220F220F920F8F70890F83
S11300D00895E1E4F2E084819581891721F0809309
S11300E0460281E0089580E00895CF93C82F84B339
S11300F08D7F84BB85B38D7F85BB8C2F0E94490087
S11301008823D9F381E0CF91089594EA96BF06B687
S113011007FEFDCF880F83B984E886BF06B607FEC5
S1130120FDCF089583B984E886BF06B607FEFDCFE8
S113013008956093400294EA96BF06B607FEFDCF89
S113014090E0880F991F816083B984E886BF06B662
S113015007FEFDCF089580914002815080934002B4
S113016018161CF484EC86BF04C0811102C084E814
S113017086BF06B607FEFDCF83B1089584E986BF26
S113018006B604FCFDCF08951F920F920FB60F928E
S113019011248F939F93AF93BF93809156029091B4
S11301A05702A0915802B09159020196A11DB11DA8
S11301B08093560290935702A0935802B093590229
S11301C0BF91AF919F918F910F900FBE0F901F9091
S11301D018959EB599609EBD682F70E080E090E010
S11301E00E94F40720E030E04AE754E40E945107FB
S11301F02DEB37E346E853E30E9451070E94C307FF
S11302007BBD6ABD89B7806189BF0895F89421E0F8
S113021009C06091560270915702809158029091E2
S1130220590220E02111F5CF789408950E948500A9
S113023080E00E9492000E94BE000895CF93C62FD2
S11302400E9485008C2F0E9492000E94BE00CF91D4
S113025008951F93CF93DF93182F682F607FC9E30E
S1130260D2E06460688389810E941E0185E08A95DA
S1130270F1F7000068816B7F688389810E941E0109
S11302808FED9EE20197F1F700C00000612F6295A7
S1130290607F6460688389810E941E0195E09A955D
S11302A0F1F7000068816B7F688389810E941E01D9
S11302B08FED9EE20197F1F700C00000DF91CF912E
S11302C01F9108951F93CF93DF93182F682F607F9A
S11302D0C9E3D2E06560688389810E941E0185E0DC
S11302E08A95F1F7000068816B7F688389810E9499
S11302F01E018FED9EE20197F1F700C0000090E12E
S1130300199FB001112461606D7F646068838981E5
S11303100E941E0185E08A95F1F7000068816B7FD9
S1130320688389810E941E018FED9EE20197F1F797
S113033000C00000DF91CF911F910895CF93DF9308
S1130340EC0103C021960E94620188818111FACFD9
S1130350DF91CF910895CF93C82F0E94850061E06B
S11303608C2F0E9499000E94AB00CF910895CF93E7
S1130370DF93C1E4D2E0682F88810E941E01888146
S11303800E94AB01DF91CF910895CF9380EF0E943B
S1130390B701C82F8FE00E94B70190E011C0492F28
S11303A050E04C5F5F4F2C2F30E002C0359527950D
S11303B04A95E2F720FD03C09093440203C09F5F77
S11303C0943068F390E013C0282F30E0092E02C067
S11303D0359527950A94E2F720FD08C0E1E4F2E0A0
S11303E0990F990F8381980F938303C09F5F943073
S11303F058F3CF91089582E00E942901089581E085
S11304000E9429010895CF93DF93C42FE9E3F2E01A
S11304108183615062838FEF840F83838FE59AEE2B
S11304200197F1F700C0000081810E9416018FE05E
S113043090E40197F1F700C0000083E00E942901D5
S11304408FE090E40197F1F700C0000083E00E9480
S113045029018FE090E40197F1F700C0000083E0E8
S11304600E9429018FE090E40197F1F700C0000099
S113047082E00E942901C13019F480913D0203C039
S113048080913D028860C9E3D2E08C8380620E943F
S113049029018D81982F94609D838C600E9429018D
S11304A08E8184600E9429010E94FF010E94FB0149
S11304B0DF91CF910895CF93DF9300D000D0CDB7D3
S11304C0DEB7198290E49A8394E19B8394E59C833C
S11304D090913B02891708F4982F80913C02681789
S11304E008F4862FE1E0F0E0EC0FFD1FE80FF11DAA
S11304F08081890F80680E9429010F900F900F90CE
S11305000F90DF91CF910895EF92FF920F931F9375
S1130510CF93DF93CDB7DEB79E01275F3F4FF9013D
S1130520419151919F01EDB6FEB660913B0270E09E
S11305306F5F7F4F8DB79EB7861B970B0FB6F894EE
S11305409EBF0FBE8DBF0DB71EB70F5F1F4FC801F3
S11305500E94A208C8010E949E010FB6F894FEBE34
S11305600FBEEDBEDF91CF911F910F91FF90EF90E1
S11305700895EF92FF920F931F93CF93DF93EC01B3
S11305808B017A0188E60E94850080E00E94920037
S113059063E088E60E9499000E94AB008F770E9476
S11305A05E00F70180830E94AB000E945E00F801A8
S11305B080830E94AB000E945E0088830E94BE007C
S11305C0DF91CF911F910F91FF90EF900895EF92DB
S11305D0FF920F931F93CF93DF937C018B01EA016A
S11305E088E60E94850084E00E94920063E088E629
S11305F00E9499000E94AB000E945E00F701808374
S11306000E94AB000E945E00F80180830E94AB0050
S11306100E945E0088830E94BE00DF91CF911F91EB
S11306200F91FF90EF900895CF93DF93EC0188E64C
S11306300E94850083E00E94920061E088E60E94A7
S113064099000E94AB000E945E0088830E94BE0055
S1130650DF91CF910895CF93DF93EC0188E60E9458
S1130660850081E10E94920061E088E60E94990081
S11306700E94AB008883882314F4819588830E94A8
S1130680BE00DF91CF910895CF93C82F80E50E94DB
S1130690850080E00E9492008C2F0E94920061E00D
S11306A080E50E9499000E94AB00CF910895CF93FA
S11306B0DF93D82FC62F0E9444038C17B1F080E536
S11306C00E94850080E00E9492008D2F0E9492007B
S11306D08C2F0E9492000E94BE008FE19EE401973D
S11306E0F1F700C0000081E001C080E0DF91CF910C
S11306F00895E82FF92F02C06083319620812111DB
S1130700FBCF0895DC01FB0104C041505109DB011A
S1130710F901BD016F5F7F4F9C919F012F5F3F4F98
S11307208081981791F3452B11F480E0089581E0BE
S11307300895FC0180E002C08F5FF9019F012F5FE3
S11307403F4F90819111F8CF0895EF92FF920F934C
S11307501F93CF93DF937C018B01EA010E949903DD
S1130760F701E80FF11D07C0D8012C912083EC019B
S113077031960F5F1F4FCE010197CD2BA9F7108241
S1130780C701DF91CF911F910F91FF90EF900895D2
S1130790E1E4F2E08083618342830E9416010895BC
S11307A080EF0E94B7018F3F31F091E0803F09F460
S11307B090E0892F089580E008950F931F930E947D
S11307C0C5010E94D003882359F0A1E4B2E0139636
S11307D0EC911397F0E0E859FF4F808114968C93C5
S11307E00E9406010091470210914802209149029B
S11307F030914A02DC01CB01801B910BA20BB30B9D
S113080084369105A105B10588F00E940601609324
S11308104702709348028093490290934A020E94CF
S11308206900882329F08091450203C080E001C05B
S113083080E01F910F9108951F920F920FB60F92AF
S113084011242F933F934F935F938F939F93EF9331
S1130850FF932BB13CB1207128608091380190E066
S113086001968F7799274091370150E084179507B7
S113087039F080933801FC01E754FE4F308301C006
S113088022E020933401FF91EF919F918F915F912A
S11308904F913F912F910F900FBE0F901F9018957D
S11308A01F920F920FB60F9211248F939F93EF9381
S11308B0FF939091360180913501981771F08091E2
S11308C0350190E001968F77992780933501FC01DB
S11308D0E75CFE4F80818CB903C08AB18F7D8AB9F1
S11308E0FF91EF919F918F910F900FBE0F901F90EA
S11308F018959C01F89491E009C010923801109267
S11309003701109236011092350190E09111F5CF24
S1130910789440E050E060E472E48FE090E00E945C
S113092080082150310930BD29B98AB188698AB952
S113093080B5866880BD789408954091360150E072
S11309404F5F5F4F4F7755272091350130E04217B5
S11309505307D1F3FA01E75CFE4F808340933601DD
S11309608AB180628AB90895CF93DF93EC0103C002
S113097021960E949D0488818111FACFDF91CF9145
S113098008950F931F93CF93DF93CDB7DEB7EF97FF
S11309900FB6F894DEBF0FBECDBF4AE552E06BE55B
S11309A072E08CE592E00E94B90240E652E06FE505
S11309B072E08EE592E00E94E7028DE592E00E94EB
S11309C0140381E692E00E942B03809165029091CA
S11309D06602A0916702B091680240916400509150
S11309E0650060916600709167008C019D01041B95
S11309F0150B260B370BB901A801493E534061057D
S1130A00710508F485C08093640090936500A093F9
S1130A106600B093670060E080E00E945B0288EBB0
S1130A2090E09F938F930E94840280915C020F90C8
S1130A300F908A3040F48FEB90E09F938F930E9445
S1130A4084020F900F900AE512E0F80182811F9250
S1130A508F9381EC90E09F938F930E948402F8011E
S1130A6081810F900F900F900F908A3040F48FEB9C
S1130A7090E09F938F930E9484020F900F900AE559
S1130A8012E0F80181811F928F9381EC90E09F9393
S1130A908F930E948402F80180810F900F900F9031
S1130AA00F908A3040F48FEB90E09F938F930E94D5
S1130AB084020F900F900AE512E0F80180811F92E2
S1130AC08F938AEF90E09F938F930E94840263E058
S1130AD080E00E945B0285EC90E09F938F930E94DC
S1130AE08402F8018781282F082E000C330B3F93D2
S1130AF08F9383ED90E09F938F930E94840287ED00
S1130B0090E00E94B4040FB6F894DEBF0FBECDBFD0
S1130B108091650290916602A0916702B09168028B
S1130B204091600050916100609162007091630097
S1130B308C019D01041B150B260B370BB901A80171
S1130B40413157426105710508F4B1C080936000DA
S1130B5090936100A0936200B093630061E080E031
S1130B600E945B0281EE90E09F938F930E94840227
S1130B7080915E020F900F908A3040F48FEB90E0EA
S1130B809F938F930E9484020F900F900AE512E0C6
S1130B90F80184811F928F9388EE90E09F938F9346
S1130BA00E948402F80185810F900F900F900F909E
S1130BB08A3040F48FEB90E09F938F930E948402DD
S1130BC00F900F900AE512E0F80185811F928F9330
S1130BD088EE90E09F938F930E948402F8018681AF
S1130BE00F900F900F900F908A3040F48FEB90E0AD
S1130BF09F938F930E9484020F900F900AE512E056
S1130C00F80186811F928F938AEF90E09F938F93D0
S1130C100E94840262E080E00E945B028CEE90E01D
S1130C209F938F930E9484028FE3E9E7F0E0DE0153
S1130C30119601900D928A95E1F7F801838190E075
S1130C4001979C01220F331F220F331F220F331FE2
S1130C50820F931F01E010E00C0F1D1F800F911FE6
S1130C609F938F9382EF90E09F938F930E948402CF
S1130C7069E080E00E945703182F80E00E9444033B
S1130C808093630260E08FE00E945B021F921F93D7
S1130C90809163021F928F9385EF90E09F938F93CF
S1130CA00E9484020FB6F894DEBF0FBECDBFEF964C
S1130CB00FB6F894DEBF0FBECDBFDF91CF911F9169
S1130CC00F9108950F931F93CF93DF93CDB7DEB7A2
S1130CD027970FB6F894DEBF0FBECDBF87E0EFE1D4
S1130CE0F1E0DE01119601900D928A95E1F70E94E0
S1130CF0DD0380936202882331F180914B028111DC
S1130D0002C00E94FF0141E050E062E672E08CE420
S1130D1092E00E94A50360E080914B020E945B0276
S1130D20809162021F928F938DEF90E09F938F9337
S1130D300E94840280914B028F5F80934B020F903C
S1130D400F900F900F9080914B02863009F060C095
S1130D5060E080E00E945B0247E050E0BE016F5F0C
S1130D607F4F8CE492E00E948203811109C080E0ED
S1130D7091E09F938F930E9484020F900F9008C07C
S1130D8080E191E09F938F930E9484020F900F90D3
S1130D9060E08CE492E00E94790310924B020E947E
S1130DA006016093650270936602809367029093D4
S1130DB068020E940601009165021091660220916A
S1130DC0670230916802DC01CB01801B910BA20BFE
S1130DD0B30B813D9740A105B10558F380ED97E031
S1130DE0A0E0B0E08093640090936500A093660057
S1130DF0B093670088EF9AE2A0E0B0E080936000CF
S1130E0090936100A0936200B09363000E94FF017D
S1130E1080914B0227960FB6F894DEBF0FBECDBF6C
S1130E20DF91CF911F910F91089580E895E20E9480
S1130E30790481E00E94E90088E40E94750044E09E
S1130E4064E188E30E94030286E291E09F938F931A
S1130E500E9484022FEF83ED90E321508040904064
S1130E60E1F700C000000E94FF0144E064E089E370
S1130E700E94C80387ED90E00E94B4040F900F9085
S1130E800E94060160936502709366028093670274
S1130E90909368020E94C1040E9462068111FCCFF3
S1130EA0EFCF0E9465070C9446080E943F0858F053
S1130EB00E94380840F029F45F3F29F00C942F0871
S1130EC051110C947A080C9435080E94570868F361
S1130ED09923B1F3552391F3951B550BBB27AA27EF
S1130EE062177307840738F09F5F5F4F220F331F29
S1130EF0441FAA1FA9F335D00E2E3AF0E0E832D0F1
S1130F0091505040E695001CCAF72BD0FE2F29D0F3
S1130F10660F771F881FBB1F261737074807AB07C5
S1130F20B0E809F0BB0B802DBF01FF2793585F4F3A
S1130F303AF09E3F510578F00C942F080C947A08EF
S1130F405F3FE4F3983ED4F3869577956795B7951C
S1130F50F7959F5FC9F7880F911D9695879597F927
S1130F600895E1E0660F771F881FBB1F62177307A0
S1130F708407BA0720F0621B730B840BBA0BEE1FB5
S1130F8088F7E09508950E945F0888F09F5798F0CD
S1130F90B92F9927B751B0F0E1F0660F771F881F7A
S1130FA0991F1AF0BA95C9F714C0B13091F00E9494
S1130FB07908B1E008950C947908672F782F882771
S1130FC0B85F39F0B93FCCF3869577956795B395BB
S1130FD0D9F73EF490958095709561957F4F8F4F2A
S1130FE09F4F0895E89409C097FB3EF4909580952F
S1130FF0709561957F4F8F4F9F4F9923A9F0F92FDB
S113100096E9BB279395F695879577956795B79558
S1131010F111F8CFFAF4BB0F11F460FF1BC06F5F3E
S11310207F4F8F4F9F4F16C0882311F096E911C050
S1131030772321F09EE8872F762F05C0662371F071
S113104096E8862F70E060E02AF09A95660F771F85
S1131050881FDAF7880F9695879597F9089597F979
S11310609F6780E870E060E008959FEF80EC08954A
S113107000240A9416161706180609060895002473
S11310800A9412161306140605060895092E0394ED
S1131090000C11F4882352F0BB0F40F4BF2B11F461
S11310A060FF04C06F5F7F4F8F4F9F4F089557FDC0
S11310B09058440F551F59F05F3F71F04795880FC2
S11310C097FB991F61F09F3F79F087950895121659
S11310D013061406551FF2CF4695F1DF08C0161605
S11310E017061806991FF1CF8695710561050894B6
S11310F00895E894BB2766277727CB0197F90895CD
S1131100A1E21A2EAA1BBB1BFD010DC0AA1FBB1F07
S1131110EE1FFF1FA217B307E407F50720F0A21B79
S1131120B30BE40BF50B661F771F881F991F1A94E6
S113113069F760957095809590959B01AC01BD0110
S1131140CF010895AEE0B0E0E8EAF8E00C946D0B4E
S11311508C01FA0186E08C831A83098377FF02C02D
S113116060E070E8CB0101979E838D83A901BF01E4
S1131170CE0101960E94CE084D815E8157FD0AC0C2
S11311802F813885421753070CF49A01F801E20FB6
S1131190F31F10822E96E4E00C94890BABE0B0E0D0
S11311A0E4EDF8E00C945F0B6C017B018A01FC0117
S11311B017821682838181FFCCC1CE0101963C0146
S11311C0F6019381F70193FD859193FF81917F014E
S11311D0882309F4BAC1853239F493FD859193FFCC
S11311E081917F01853229F4B60190E00E94C50AFD
S11311F0E7CF912C212C312CFFE1F315D8F08B3261
S113120079F038F4803279F08332A1F4232D20610F
S11312101DC08D3261F0803369F4232D216016C026
S1131220832D8260382EE32DE4603E2E2AC0F32DF8
S1131230F8601DC037FC2DC020ED280F2A3040F087
S11312408E32B9F436FC81C1232D2064322E19C0AC
S113125036FE06C08AE0989E200D1124922E11C0FD
S1131260EAE02E9E200D1124222EF32DF0623F2E53
S113127008C08C3621F4832D8068382E02C088364D
S113128041F4F70193FD859193FF81917F018111D1
S1131290B3CF982F9F7D9554933028F40C5F1F4F44
S11312A09FE399830DC0833631F0833771F0833522
S11312B009F059C021C0F801808189830E5F1F4F56
S11312C088248394912C530113C02801F2E04F0E1B
S11312D0511CF801A080B18036FE03C0692D70E076
S11312E002C06FEF7FEFC5010E94BA0A4C01820170
S11312F0F32DFF773F2E16C0280122E0420E511C29
S1131300F801A080B18036FE03C0692D70E002C0F0
S11313106FEF7FEFC5010E94AF0A4C01F32DF06817
S11313203F2E820133FC1BC0822D90E08816990663
S1131330B0F4B60180E290E00E94C50A2A94F4CF8A
S1131340F50137FC859137FE81915F01B60190E08C
S11313500E94C50A21102A9421E0821A910881145E
S1131360910471F7E8C0843611F0893641F5F8012B
S113137037FE07C060817181828193810C5F1F4FAA
S113138008C060817181072E000C880B990B0E5FD9
S11313901F4FF32DFF763F2E97FF09C09095809540
S11313A0709561957F4F8F4F9F4FF0683F2E2AE0D5
S11313B030E0A3010E94010B882E861845C08537B2
S11313C031F4232D2F7EB22E2AE030E025C0932D58
S11313D0997FB92E8F36C1F018F4883579F0B5C0ED
S11313E0803719F0883721F0B0C0E92FE061BE2EB4
S11313F0B4FE0DC0FB2DF460BF2E09C034FE0AC03C
S1131400292F2660B22E06C028E030E005C020E176
S113141030E002C020E132E0F801B7FE07C060818D
S11314207181828193810C5F1F4F06C0608171813D
S113143080E090E00E5F1F4FA3010E94010B882EF5
S11314408618FB2DFF773F2E36FE0DC0232D2E7FF1
S1131450A22E891458F434FE0BC032FC09C0832D2B
S11314608E7EA82E05C0B82CA32C03C0B82C01C0B6
S1131470B92CA4FE0FC0FE01E80DF11D808180335C
S113148021F49A2D997EA92E09C0A2FE06C0B39418
S1131490B39404C08A2D867809F0B394A3FC11C0D8
S11314A0A0FE06C0B21488F4280C922C9B180EC01F
S11314B0B21460F4B60180E290E00E94C50AB394CD
S11314C0F7CFB21418F42B1802C0982C212CA4FEC8
S11314D010C0B60180E390E00E94C50AA2FE17C0C6
S11314E0A1FC03C088E790E002C088E590E0B60163
S11314F00CC08A2D867859F0A1FE02C08BE201C08F
S113150080E2A7FC8DE2B60190E00E94C50A89142E
S113151038F4B60180E390E00E94C50A9A94F7CFAC
S11315208A94F301E80DF11D8081B60190E00E94D8
S1131530C50A8110F5CF222009F442CEB60180E21B
S113154090E00E94C50A2A94F6CFF601868197811D
S113155002C08FEF9FEF2B96E2E10C947B0BFC0112
S11315600590615070400110D8F7809590958E0FCA
S11315709F1F0895FC016150704001900110D8F73D
S1131580809590958E0F9F1F08950F931F93CF936F
S1131590DF93FB01238121FD03C08FEF9FEF2CC05C
S11315A022FF16C046815781248135814217530793
S11315B044F4A081B1819D012F5F3F4F318320838B
S11315C08C93268137812F5F3F4F3783268314C046
S11315D08B01EC01FB010084F185E02D0995892B39
S11315E0E1F6D80116968D919C911797019617965E
S11315F09C938E931697CE01DF91CF911F910F91FB
S11316000895FA01AA27283051F1203181F1E89494
S11316106F936E7F6E5F7F4F8F4F9F4FAF4FB1E0E1
S11316203ED0B4E03CD0670F781F891F9A1FA11DDC
S1131630680F791F8A1F911DA11D6A0F711D811DDD
S1131640911DA11D20D009F468943F912AE0269FA2
S113165011243019305D3193DEF6CF010895462F01
S11316604770405D4193B3E00FD0C9F7F6CF462FE2
S11316704F70405D4A3318F0495D31FD405241934B
S113168002D0A9F7EACFB4E0A69597958795779508
S11316906795BA95C9F700976105710508959B018F
S11316A0AC010A2E06945795479537952795BA9518
S11316B0C9F7620F731F841F951FA01D08952F92F1
S11316C03F924F925F926F927F928F929F92AF92CE
S11316D0BF92CF92DF92EF92FF920F931F93CF931B
S11316E0DF93CDB7DEB7CA1BDB0B0FB6F894DEBFB2
S11316F00FBECDBF09942A88398848885F846E84D8
S11317007D848C849B84AA84B984C884DF80EE8021
S1131710FD800C811B81AA81B981CE0FD11D0FB62A
S1131720F894DEBF0FBECDBFED010895F894FFCF4E
S113173010270000E80300003132334134353642CB
S1131740373839432A302344004D6F6E6461790081
S113175000005475657364617900005765646E65B3
S1131760736461795468757273646179004672694F
S11317706461790000005361747572646179005387
S1131780756E64617900000054696D653A2000301B
S11317900025643A0054656D7065726174757265F4
S11317A03A20002564430048656C6C6F204D462147
S11317B000446174653A200025642F00446F573A51
S11317C02000257300307825582025640025630007
S11317D0416363657373204772616E7465642100AD
S11317E04163636573732044656E696564210031E8
S11317F03330383032004C4344203230783420497E
S1071800324300006B
S9030000FC
