S01100005246494420546573742E737265632E
S11300000C9434000C9446000C9446000C94460066
S11300100C9446000C9446000C9446000C94460044
S11300200C9446000C9446000C9446000C94460034
S11300300C9446000C9446000C9446000C94460024
S11300400C9446000C9446000C9448000C947E00DA
S11300500C9446000C9446000C9446000C94460004
S11300600C9446000C94460011241FBECFEFD4E03C
S1130070DEBFCDBF22E0A0E0B1E001C01D92A530FB
S1130080B207E1F70E94EC000C9424010C940000E8
S11300901F920F920FB60F9211242F933F934F93F9
S11300A05F938F939F93EF93FF932091C0003091C0
S11300B0C600207128608091040190E001968F773A
S11300C099274091030150E08417950739F08093F4
S11300D00401FC01EB57FE4F308301C022E0209362
S11300E00001FF91EF919F918F915F914F913F910B
S11300F02F910F900FBE0F901F9018951F920F9283
S11301000FB60F9211248F939F93EF93FF939091C7
S1130110020180910101981779F08091010190E02A
S113012001968F77992780930101FC01EB5FFE4FC5
S113013080818093C60005C0E1ECF0E080818F7D72
S11301408083FF91EF919F918F910F900FBE0F903D
S11301501F9018959B01AC01F89481E009C010929E
S1130160040110920301109202011092010180E037
S11301708111F5CF789460E078EB8BE090E00E94F9
S11301800201215031093093C5002093C400E1ECF1
S1130190F0E0808188698083E2ECF0E08081866011
S11301A08083789408954091020150E04F5F5F4F3F
S11301B04F7755272091010130E042175307D1F3BF
S11301C0FA01EB5FFE4F808340930201E1ECF0E023
S11301D0808180628083089560E07BE480E090E029
S11301E00E94AA0083E40E94D30083E40E94D30007
S11301F02FEF8FE795E2215080409040E1F700C057
S11302000000F3CFA1E21A2EAA1BBB1BFD010DC0F7
S1130210AA1FBB1FEE1FFF1FA217B307E407F507B2
S113022020F0A21BB30BE40BF50B661F771F881F8E
S1130230991F1A9469F760957095809590959B0124
S10F0240AC01BD01CF010895F894FFCF7C
S9030000FC
